{
  "_format": "hh-sol-artifact-1",
  "contractName": "VotingContract",
  "sourceName": "contracts/VotingContract.sol",
  "abi": [
    {
      "anonymous": false,
      "inputs": [
        {
          "indexed": false,
          "internalType": "uint256",
          "name": "sessionId",
          "type": "uint256"
        },
        {
          "indexed": false,
          "internalType": "string",
          "name": "name",
          "type": "string"
        }
      ],
      "name": "CandidateAdded",
      "type": "event"
    },
    {
      "anonymous": false,
      "inputs": [
        {
          "indexed": false,
          "internalType": "uint256",
          "name": "sessionId",
          "type": "uint256"
        }
      ],
      "name": "SessionClosed",
      "type": "event"
    },
    {
      "anonymous": false,
      "inputs": [
        {
          "indexed": false,
          "internalType": "uint256",
          "name": "sessionId",
          "type": "uint256"
        },
        {
          "indexed": false,
          "internalType": "address",
          "name": "host",
          "type": "address"
        },
        {
          "indexed": false,
          "internalType": "string",
          "name": "name",
          "type": "string"
        }
      ],
      "name": "SessionCreated",
      "type": "event"
    },
    {
      "anonymous": false,
      "inputs": [
        {
          "indexed": false,
          "internalType": "uint256",
          "name": "sessionId",
          "type": "uint256"
        },
        {
          "indexed": false,
          "internalType": "address",
          "name": "voter",
          "type": "address"
        },
        {
          "indexed": false,
          "internalType": "uint256",
          "name": "candidateId",
          "type": "uint256"
        }
      ],
      "name": "VoteCast",
      "type": "event"
    },
    {
      "anonymous": false,
      "inputs": [
        {
          "indexed": false,
          "internalType": "uint256",
          "name": "sessionId",
          "type": "uint256"
        },
        {
          "indexed": false,
          "internalType": "address",
          "name": "voter",
          "type": "address"
        }
      ],
      "name": "VoterAdded",
      "type": "event"
    },
    {
      "inputs": [
        {
          "internalType": "uint256",
          "name": "_sessionId",
          "type": "uint256"
        },
        {
          "internalType": "address",
          "name": "_voter",
          "type": "address"
        }
      ],
      "name": "addVoter",
      "outputs": [],
      "stateMutability": "nonpayable",
      "type": "function"
    },
    {
      "inputs": [
        {
          "internalType": "uint256",
          "name": "_sessionId",
          "type": "uint256"
        },
        {
          "internalType": "uint256",
          "name": "_candidateId",
          "type": "uint256"
        }
      ],
      "name": "castVote",
      "outputs": [],
      "stateMutability": "nonpayable",
      "type": "function"
    },
    {
      "inputs": [
        {
          "internalType": "uint256",
          "name": "_sessionId",
          "type": "uint256"
        }
      ],
      "name": "closeSession",
      "outputs": [],
      "stateMutability": "nonpayable",
      "type": "function"
    },
    {
      "inputs": [
        {
          "internalType": "string",
          "name": "_name",
          "type": "string"
        },
        {
          "internalType": "string",
          "name": "_description",
          "type": "string"
        },
        {
          "internalType": "string[]",
          "name": "_candidates",
          "type": "string[]"
        },
        {
          "internalType": "address[]",
          "name": "_voters",
          "type": "address[]"
        },
        {
          "internalType": "uint256",
          "name": "_startTime",
          "type": "uint256"
        },
        {
          "internalType": "uint256",
          "name": "_endTime",
          "type": "uint256"
        },
        {
          "internalType": "uint256",
          "name": "_resultTime",
          "type": "uint256"
        }
      ],
      "name": "createVotingSession",
      "outputs": [
        {
          "internalType": "uint256",
          "name": "",
          "type": "uint256"
        }
      ],
      "stateMutability": "nonpayable",
      "type": "function"
    },
    {
      "inputs": [
        {
          "internalType": "uint256",
          "name": "_sessionId",
          "type": "uint256"
        },
        {
          "internalType": "uint256",
          "name": "_candidateId",
          "type": "uint256"
        }
      ],
      "name": "getCandidateVotes",
      "outputs": [
        {
          "internalType": "uint256",
          "name": "",
          "type": "uint256"
        }
      ],
      "stateMutability": "view",
      "type": "function"
    },
    {
      "inputs": [],
      "name": "getHostSessions",
      "outputs": [
        {
          "internalType": "uint256[]",
          "name": "",
          "type": "uint256[]"
        }
      ],
      "stateMutability": "view",
      "type": "function"
    },
    {
      "inputs": [
        {
          "internalType": "uint256",
          "name": "_sessionId",
          "type": "uint256"
        }
      ],
      "name": "getSessionDetails",
      "outputs": [
        {
          "internalType": "address",
          "name": "host",
          "type": "address"
        },
        {
          "internalType": "string",
          "name": "name",
          "type": "string"
        },
        {
          "internalType": "string",
          "name": "description",
          "type": "string"
        },
        {
          "internalType": "uint256",
          "name": "startTime",
          "type": "uint256"
        },
        {
          "internalType": "uint256",
          "name": "endTime",
          "type": "uint256"
        },
        {
          "internalType": "uint256",
          "name": "resultTime",
          "type": "uint256"
        },
        {
          "internalType": "bool",
          "name": "active",
          "type": "bool"
        },
        {
          "internalType": "string[]",
          "name": "candidateNames",
          "type": "string[]"
        },
        {
          "internalType": "uint256",
          "name": "voterCount",
          "type": "uint256"
        }
      ],
      "stateMutability": "view",
      "type": "function"
    },
    {
      "inputs": [
        {
          "internalType": "uint256",
          "name": "_sessionId",
          "type": "uint256"
        },
        {
          "internalType": "address",
          "name": "_voter",
          "type": "address"
        }
      ],
      "name": "hasVoted",
      "outputs": [
        {
          "internalType": "bool",
          "name": "",
          "type": "bool"
        }
      ],
      "stateMutability": "view",
      "type": "function"
    },
    {
      "inputs": [
        {
          "internalType": "uint256",
          "name": "_sessionId",
          "type": "uint256"
        },
        {
          "internalType": "address",
          "name": "_voter",
          "type": "address"
        }
      ],
      "name": "isEligibleVoter",
      "outputs": [
        {
          "internalType": "bool",
          "name": "",
          "type": "bool"
        }
      ],
      "stateMutability": "view",
      "type": "function"
    },
    {
      "inputs": [
        {
          "internalType": "uint256",
          "name": "",
          "type": "uint256"
        }
      ],
      "name": "sessions",
      "outputs": [
        {
          "internalType": "uint256",
          "name": "id",
          "type": "uint256"
        },
        {
          "internalType": "address",
          "name": "host",
          "type": "address"
        },
        {
          "internalType": "string",
          "name": "name",
          "type": "string"
        },
        {
          "internalType": "string",
          "name": "description",
          "type": "string"
        },
        {
          "internalType": "uint256",
          "name": "startTime",
          "type": "uint256"
        },
        {
          "internalType": "uint256",
          "name": "endTime",
          "type": "uint256"
        },
        {
          "internalType": "uint256",
          "name": "resultTime",
          "type": "uint256"
        },
        {
          "internalType": "bool",
          "name": "active",
          "type": "bool"
        }
      ],
      "stateMutability": "view",
      "type": "function"
    },
    {
      "inputs": [
        {
          "internalType": "address",
          "name": "",
          "type": "address"
        },
        {
          "internalType": "uint256",
          "name": "",
          "type": "uint256"
        }
      ],
      "name": "userSessions",
      "outputs": [
        {
          "internalType": "uint256",
          "name": "",
          "type": "uint256"
        }
      ],
      "stateMutability": "view",
      "type": "function"
    }
  ],
  "bytecode": "0x608060405234801561001057600080fd5b50612a48806100206000396000f3fe608060405234801561001057600080fd5b50600436106100a85760003560e01c80634385963211610071578063438596321461016357806359d76a34146101935780636d597d13146101cb57806381cb26b9146101fb57806383c4b7a31461022b578063a3bfdf4714610262576100a8565b8062164454146100ad57806309391321146100dd5780630b8c011e146100f9578063112d26a9146101175780632c0a3f8914610147575b600080fd5b6100c760048036038101906100c291906119b5565b61027e565b6040516100d49190611ad6565b60405180910390f35b6100f760048036038101906100f29190611af1565b61079b565b005b610101610a7a565b60405161010e9190611bef565b60405180910390f35b610131600480360381019061012c9190611c11565b610b0f565b60405161013e9190611ad6565b60405180910390f35b610161600480360381019061015c9190611c11565b610b44565b005b61017d60048036038101906101789190611af1565b610ed6565b60405161018a9190611c6c565b60405180910390f35b6101ad60048036038101906101a89190611c87565b610f44565b6040516101c299989796959493929190611e4e565b60405180910390f35b6101e560048036038101906101e09190611ef0565b6111ce565b6040516101f29190611ad6565b60405180910390f35b61021560048036038101906102109190611af1565b6111ff565b6040516102229190611c6c565b60405180910390f35b61024560048036038101906102409190611c87565b61126d565b604051610259989796959493929190611f30565b60405180910390f35b61027c60048036038101906102779190611c87565b6113f2565b005b60004284116102c2576040517f08c379a00000000000000000000000000000000000000000000000000000000081526004016102b990612008565b60405180910390fd5b838311610304576040517f08c379a00000000000000000000000000000000000000000000000000000000081526004016102fb9061209a565b60405180910390fd5b82821015610347576040517f08c379a000000000000000000000000000000000000000000000000000000000815260040161033e9061212c565b60405180910390fd5b600086511161038b576040517f08c379a000000000000000000000000000000000000000000000000000000000815260040161038290612198565b60405180910390fd5b600080600081548092919061039f906121e7565b9190505590506000600160008381526020019081526020016000209050818160000181905550338160010160006101000a81548173ffffffffffffffffffffffffffffffffffffffff021916908373ffffffffffffffffffffffffffffffffffffffff16021790555089816002019081610419919061243b565b508881600301908161042b919061243b565b5085816004018190555084816005018190555083816006018190555060018160070160006101000a81548160ff0219169083151502179055508781600801908051906020019061047c929190611544565b5060005b885181101561052d5760405180606001604052808a83815181106104a7576104a661250d565b5b60200260200101518152602001600081526020016001151581525082600901600083815260200190815260200160002060008201518160000190816104ec919061243b565b506020820151816001015560408201518160020160006101000a81548160ff0219169083151502179055509050508080610525906121e7565b915050610480565b5060005b87518110156106e9576040518060600160405280600015158152602001600081526020016001151581525082600a0160008a84815181106105755761057461250d565b5b602002602001015173ffffffffffffffffffffffffffffffffffffffff1673ffffffffffffffffffffffffffffffffffffffff16815260200190815260200160002060008201518160000160006101000a81548160ff0219169083151502179055506020820151816001015560408201518160020160006101000a81548160ff02191690831515021790555090505081600b0188828151811061061b5761061a61250d565b5b60200260200101519080600181540180825580915050600190039060005260206000200160009091909190916101000a81548173ffffffffffffffffffffffffffffffffffffffff021916908373ffffffffffffffffffffffffffffffffffffffff1602179055507fbe03f66069cbbe16c325546c4cf7a8d334ab3baa0a1e50ad1b5955cf7565f514838983815181106106b8576106b761250d565b5b60200260200101516040516106ce92919061253c565b60405180910390a180806106e1906121e7565b915050610531565b50600260003373ffffffffffffffffffffffffffffffffffffffff1673ffffffffffffffffffffffffffffffffffffffff1681526020019081526020016000208290806001815401808255809150506001900390600052602060002001600090919091909150557fa029b05e360a94f959f873ec07d0ad81fae3b381667c2f923365510e1842a8a182338c60405161078393929190612565565b60405180910390a18192505050979650505050505050565b60006001600084815260200190815260200160002090503373ffffffffffffffffffffffffffffffffffffffff168160010160009054906101000a900473ffffffffffffffffffffffffffffffffffffffff1673ffffffffffffffffffffffffffffffffffffffff1614610844576040517f08c379a000000000000000000000000000000000000000000000000000000000815260040161083b906125ef565b60405180910390fd5b8060070160009054906101000a900460ff16610895576040517f08c379a000000000000000000000000000000000000000000000000000000000815260040161088c9061265b565b60405180910390fd5b80600a0160008373ffffffffffffffffffffffffffffffffffffffff1673ffffffffffffffffffffffffffffffffffffffff16815260200190815260200160002060020160009054906101000a900460ff1615610927576040517f08c379a000000000000000000000000000000000000000000000000000000000815260040161091e906126c7565b60405180910390fd5b6040518060600160405280600015158152602001600081526020016001151581525081600a0160008473ffffffffffffffffffffffffffffffffffffffff1673ffffffffffffffffffffffffffffffffffffffff16815260200190815260200160002060008201518160000160006101000a81548160ff0219169083151502179055506020820151816001015560408201518160020160006101000a81548160ff02191690831515021790555090505080600b01829080600181540180825580915050600190039060005260206000200160009091909190916101000a81548173ffffffffffffffffffffffffffffffffffffffff021916908373ffffffffffffffffffffffffffffffffffffffff1602179055507fbe03f66069cbbe16c325546c4cf7a8d334ab3baa0a1e50ad1b5955cf7565f5148383604051610a6d92919061253c565b60405180910390a1505050565b6060600260003373ffffffffffffffffffffffffffffffffffffffff1673ffffffffffffffffffffffffffffffffffffffff168152602001908152602001600020805480602002602001604051908101604052809291908181526020018280548015610b0557602002820191906000526020600020905b815481526020019060010190808311610af1575b5050505050905090565b600060016000848152602001908152602001600020600901600083815260200190815260200160002060010154905092915050565b60006001600084815260200190815260200160002090508060070160009054906101000a900460ff16610bac576040517f08c379a0000000000000000000000000000000000000000000000000000000008152600401610ba39061265b565b60405180910390fd5b8060040154421015610bf3576040517f08c379a0000000000000000000000000000000000000000000000000000000008152600401610bea90612733565b60405180910390fd5b8060050154421115610c3a576040517f08c379a0000000000000000000000000000000000000000000000000000000008152600401610c319061279f565b60405180910390fd5b80600a0160003373ffffffffffffffffffffffffffffffffffffffff1673ffffffffffffffffffffffffffffffffffffffff16815260200190815260200160002060020160009054906101000a900460ff16610ccb576040517f08c379a0000000000000000000000000000000000000000000000000000000008152600401610cc29061280b565b60405180910390fd5b80600a0160003373ffffffffffffffffffffffffffffffffffffffff1673ffffffffffffffffffffffffffffffffffffffff16815260200190815260200160002060000160009054906101000a900460ff1615610d5d576040517f08c379a0000000000000000000000000000000000000000000000000000000008152600401610d5490612877565b60405180910390fd5b80600901600083815260200190815260200160002060020160009054906101000a900460ff16610dc2576040517f08c379a0000000000000000000000000000000000000000000000000000000008152600401610db9906128e3565b60405180910390fd5b600181600a0160003373ffffffffffffffffffffffffffffffffffffffff1673ffffffffffffffffffffffffffffffffffffffff16815260200190815260200160002060000160006101000a81548160ff0219169083151502179055508181600a0160003373ffffffffffffffffffffffffffffffffffffffff1673ffffffffffffffffffffffffffffffffffffffff168152602001908152602001600020600101819055508060090160008381526020019081526020016000206001016000815480929190610e91906121e7565b91905055507f2acce567deca3aabf56327adbb4524bd5318936eaefa69e3a5208ffda0cfec09833384604051610ec993929190612903565b60405180910390a1505050565b600060016000848152602001908152602001600020600a0160008373ffffffffffffffffffffffffffffffffffffffff1673ffffffffffffffffffffffffffffffffffffffff16815260200190815260200160002060000160009054906101000a900460ff16905092915050565b60006060806000806000806060600080600160008c815260200190815260200160002090508060010160009054906101000a900473ffffffffffffffffffffffffffffffffffffffff1681600201826003018360040154846005015485600601548660070160009054906101000a900460ff168760080188600b0180549050878054610fcf9061225e565b80601f0160208091040260200160405190810160405280929190818152602001828054610ffb9061225e565b80156110485780601f1061101d57610100808354040283529160200191611048565b820191906000526020600020905b81548152906001019060200180831161102b57829003601f168201915b5050505050975086805461105b9061225e565b80601f01602080910402602001604051908101604052809291908181526020018280546110879061225e565b80156110d45780601f106110a9576101008083540402835291602001916110d4565b820191906000526020600020905b8154815290600101906020018083116110b757829003601f168201915b5050505050965081805480602002602001604051908101604052809291908181526020016000905b828210156111a857838290600052602060002001805461111b9061225e565b80601f01602080910402602001604051908101604052809291908181526020018280546111479061225e565b80156111945780601f1061116957610100808354040283529160200191611194565b820191906000526020600020905b81548152906001019060200180831161117757829003601f168201915b5050505050815260200190600101906110fc565b505050509150995099509950995099509950995099509950509193959799909294969850565b600260205281600052604060002081815481106111ea57600080fd5b90600052602060002001600091509150505481565b600060016000848152602001908152602001600020600a0160008373ffffffffffffffffffffffffffffffffffffffff1673ffffffffffffffffffffffffffffffffffffffff16815260200190815260200160002060020160009054906101000a900460ff16905092915050565b60016020528060005260406000206000915090508060000154908060010160009054906101000a900473ffffffffffffffffffffffffffffffffffffffff16908060020180546112bc9061225e565b80601f01602080910402602001604051908101604052809291908181526020018280546112e89061225e565b80156113355780601f1061130a57610100808354040283529160200191611335565b820191906000526020600020905b81548152906001019060200180831161131857829003601f168201915b50505050509080600301805461134a9061225e565b80601f01602080910402602001604051908101604052809291908181526020018280546113769061225e565b80156113c35780601f10611398576101008083540402835291602001916113c3565b820191906000526020600020905b8154815290600101906020018083116113a657829003601f168201915b5050505050908060040154908060050154908060060154908060070160009054906101000a900460ff16905088565b60006001600083815260200190815260200160002090503373ffffffffffffffffffffffffffffffffffffffff168160010160009054906101000a900473ffffffffffffffffffffffffffffffffffffffff1673ffffffffffffffffffffffffffffffffffffffff161461149b576040517f08c379a000000000000000000000000000000000000000000000000000000000815260040161149290612986565b60405180910390fd5b8060070160009054906101000a900460ff166114ec576040517f08c379a00000000000000000000000000000000000000000000000000000000081526004016114e3906129f2565b60405180910390fd5b60008160070160006101000a81548160ff0219169083151502179055507f737ea773789756155ce4ec81b73f88f21c918501c8bbb06721a6c6c46beb11c2826040516115389190611ad6565b60405180910390a15050565b82805482825590600052602060002090810192821561158c579160200282015b8281111561158b57825182908161157b919061243b565b5091602001919060010190611564565b5b509050611599919061159d565b5090565b5b808211156115bd57600081816115b491906115c1565b5060010161159e565b5090565b5080546115cd9061225e565b6000825580601f106115df57506115fe565b601f0160209004906000526020600020908101906115fd9190611601565b5b50565b5b8082111561161a576000816000905550600101611602565b5090565b6000604051905090565b600080fd5b600080fd5b600080fd5b600080fd5b6000601f19601f8301169050919050565b7f4e487b7100000000000000000000000000000000000000000000000000000000600052604160045260246000fd5b6116858261163c565b810181811067ffffffffffffffff821117156116a4576116a361164d565b5b80604052505050565b60006116b761161e565b90506116c3828261167c565b919050565b600067ffffffffffffffff8211156116e3576116e261164d565b5b6116ec8261163c565b9050602081019050919050565b82818337600083830152505050565b600061171b611716846116c8565b6116ad565b90508281526020810184848401111561173757611736611637565b5b6117428482856116f9565b509392505050565b600082601f83011261175f5761175e611632565b5b813561176f848260208601611708565b91505092915050565b600067ffffffffffffffff8211156117935761179261164d565b5b602082029050602081019050919050565b600080fd5b60006117bc6117b784611778565b6116ad565b905080838252602082019050602084028301858111156117df576117de6117a4565b5b835b8181101561182657803567ffffffffffffffff81111561180457611803611632565b5b808601611811898261174a565b855260208501945050506020810190506117e1565b5050509392505050565b600082601f83011261184557611844611632565b5b81356118558482602086016117a9565b91505092915050565b600067ffffffffffffffff8211156118795761187861164d565b5b602082029050602081019050919050565b600073ffffffffffffffffffffffffffffffffffffffff82169050919050565b60006118b58261188a565b9050919050565b6118c5816118aa565b81146118d057600080fd5b50565b6000813590506118e2816118bc565b92915050565b60006118fb6118f68461185e565b6116ad565b9050808382526020820190506020840283018581111561191e5761191d6117a4565b5b835b81811015611947578061193388826118d3565b845260208401935050602081019050611920565b5050509392505050565b600082601f83011261196657611965611632565b5b81356119768482602086016118e8565b91505092915050565b6000819050919050565b6119928161197f565b811461199d57600080fd5b50565b6000813590506119af81611989565b92915050565b600080600080600080600060e0888a0312156119d4576119d3611628565b5b600088013567ffffffffffffffff8111156119f2576119f161162d565b5b6119fe8a828b0161174a565b975050602088013567ffffffffffffffff811115611a1f57611a1e61162d565b5b611a2b8a828b0161174a565b965050604088013567ffffffffffffffff811115611a4c57611a4b61162d565b5b611a588a828b01611830565b955050606088013567ffffffffffffffff811115611a7957611a7861162d565b5b611a858a828b01611951565b9450506080611a968a828b016119a0565b93505060a0611aa78a828b016119a0565b92505060c0611ab88a828b016119a0565b91505092959891949750929550565b611ad08161197f565b82525050565b6000602082019050611aeb6000830184611ac7565b92915050565b60008060408385031215611b0857611b07611628565b5b6000611b16858286016119a0565b9250506020611b27858286016118d3565b9150509250929050565b600081519050919050565b600082825260208201905092915050565b6000819050602082019050919050565b611b668161197f565b82525050565b6000611b788383611b5d565b60208301905092915050565b6000602082019050919050565b6000611b9c82611b31565b611ba68185611b3c565b9350611bb183611b4d565b8060005b83811015611be2578151611bc98882611b6c565b9750611bd483611b84565b925050600181019050611bb5565b5085935050505092915050565b60006020820190508181036000830152611c098184611b91565b905092915050565b60008060408385031215611c2857611c27611628565b5b6000611c36858286016119a0565b9250506020611c47858286016119a0565b9150509250929050565b60008115159050919050565b611c6681611c51565b82525050565b6000602082019050611c816000830184611c5d565b92915050565b600060208284031215611c9d57611c9c611628565b5b6000611cab848285016119a0565b91505092915050565b611cbd816118aa565b82525050565b600081519050919050565b600082825260208201905092915050565b60005b83811015611cfd578082015181840152602081019050611ce2565b60008484015250505050565b6000611d1482611cc3565b611d1e8185611cce565b9350611d2e818560208601611cdf565b611d378161163c565b840191505092915050565b600081519050919050565b600082825260208201905092915050565b6000819050602082019050919050565b600082825260208201905092915050565b6000611d8a82611cc3565b611d948185611d6e565b9350611da4818560208601611cdf565b611dad8161163c565b840191505092915050565b6000611dc48383611d7f565b905092915050565b6000602082019050919050565b6000611de482611d42565b611dee8185611d4d565b935083602082028501611e0085611d5e565b8060005b85811015611e3c5784840389528151611e1d8582611db8565b9450611e2883611dcc565b925060208a01995050600181019050611e04565b50829750879550505050505092915050565b600061012082019050611e64600083018c611cb4565b8181036020830152611e76818b611d09565b90508181036040830152611e8a818a611d09565b9050611e996060830189611ac7565b611ea66080830188611ac7565b611eb360a0830187611ac7565b611ec060c0830186611c5d565b81810360e0830152611ed28185611dd9565b9050611ee2610100830184611ac7565b9a9950505050505050505050565b60008060408385031215611f0757611f06611628565b5b6000611f15858286016118d3565b9250506020611f26858286016119a0565b9150509250929050565b600061010082019050611f46600083018b611ac7565b611f53602083018a611cb4565b8181036040830152611f658189611d09565b90508181036060830152611f798188611d09565b9050611f886080830187611ac7565b611f9560a0830186611ac7565b611fa260c0830185611ac7565b611faf60e0830184611c5d565b9998505050505050505050565b7f53746172742074696d65206d75737420626520696e2074686520667574757265600082015250565b6000611ff2602083611cce565b9150611ffd82611fbc565b602082019050919050565b6000602082019050818103600083015261202181611fe5565b9050919050565b7f456e642074696d65206d7573742062652061667465722073746172742074696d60008201527f6500000000000000000000000000000000000000000000000000000000000000602082015250565b6000612084602183611cce565b915061208f82612028565b604082019050919050565b600060208201905081810360008301526120b381612077565b9050919050565b7f526573756c742074696d65206d75737420626520616674657220656e6420746960008201527f6d65000000000000000000000000000000000000000000000000000000000000602082015250565b6000612116602283611cce565b9150612121826120ba565b604082019050919050565b6000602082019050818103600083015261214581612109565b9050919050565b7f4d7573742068617665206174206c65617374206f6e652063616e646964617465600082015250565b6000612182602083611cce565b915061218d8261214c565b602082019050919050565b600060208201905081810360008301526121b181612175565b9050919050565b7f4e487b7100000000000000000000000000000000000000000000000000000000600052601160045260246000fd5b60006121f28261197f565b91507fffffffffffffffffffffffffffffffffffffffffffffffffffffffffffffffff8203612224576122236121b8565b5b600182019050919050565b7f4e487b7100000000000000000000000000000000000000000000000000000000600052602260045260246000fd5b6000600282049050600182168061227657607f821691505b6020821081036122895761228861222f565b5b50919050565b60008190508160005260206000209050919050565b60006020601f8301049050919050565b600082821b905092915050565b6000600883026122f17fffffffffffffffffffffffffffffffffffffffffffffffffffffffffffffffff826122b4565b6122fb86836122b4565b95508019841693508086168417925050509392505050565b6000819050919050565b600061233861233361232e8461197f565b612313565b61197f565b9050919050565b6000819050919050565b6123528361231d565b61236661235e8261233f565b8484546122c1565b825550505050565b600090565b61237b61236e565b612386818484612349565b505050565b5b818110156123aa5761239f600082612373565b60018101905061238c565b5050565b601f8211156123ef576123c08161228f565b6123c9846122a4565b810160208510156123d8578190505b6123ec6123e4856122a4565b83018261238b565b50505b505050565b600082821c905092915050565b6000612412600019846008026123f4565b1980831691505092915050565b600061242b8383612401565b9150826002028217905092915050565b61244482611cc3565b67ffffffffffffffff81111561245d5761245c61164d565b5b612467825461225e565b6124728282856123ae565b600060209050601f8311600181146124a55760008415612493578287015190505b61249d858261241f565b865550612505565b601f1984166124b38661228f565b60005b828110156124db578489015182556001820191506020850194506020810190506124b6565b868310156124f857848901516124f4601f891682612401565b8355505b6001600288020188555050505b505050505050565b7f4e487b7100000000000000000000000000000000000000000000000000000000600052603260045260246000fd5b60006040820190506125516000830185611ac7565b61255e6020830184611cb4565b9392505050565b600060608201905061257a6000830186611ac7565b6125876020830185611cb4565b81810360408301526125998184611d09565b9050949350505050565b7f4f6e6c7920686f73742063616e2061646420766f746572730000000000000000600082015250565b60006125d9601883611cce565b91506125e4826125a3565b602082019050919050565b60006020820190508181036000830152612608816125cc565b9050919050565b7f53657373696f6e206973206e6f74206163746976650000000000000000000000600082015250565b6000612645601583611cce565b91506126508261260f565b602082019050919050565b6000602082019050818103600083015261267481612638565b9050919050565b7f566f74657220616c726561647920656c696769626c6500000000000000000000600082015250565b60006126b1601683611cce565b91506126bc8261267b565b602082019050919050565b600060208201905081810360008301526126e0816126a4565b9050919050565b7f566f74696e6720686173206e6f74207374617274656420796574000000000000600082015250565b600061271d601a83611cce565b9150612728826126e7565b602082019050919050565b6000602082019050818103600083015261274c81612710565b9050919050565b7f566f74696e672068617320656e64656400000000000000000000000000000000600082015250565b6000612789601083611cce565b915061279482612753565b602082019050919050565b600060208201905081810360008301526127b88161277c565b9050919050565b7f4e6f7420656c696769626c6520746f20766f7465000000000000000000000000600082015250565b60006127f5601483611cce565b9150612800826127bf565b602082019050919050565b60006020820190508181036000830152612824816127e8565b9050919050565b7f416c726561647920766f74656400000000000000000000000000000000000000600082015250565b6000612861600d83611cce565b915061286c8261282b565b602082019050919050565b6000602082019050818103600083015261289081612854565b9050919050565b7f43616e64696461746520646f6573206e6f742065786973740000000000000000600082015250565b60006128cd601883611cce565b91506128d882612897565b602082019050919050565b600060208201905081810360008301526128fc816128c0565b9050919050565b60006060820190506129186000830186611ac7565b6129256020830185611cb4565b6129326040830184611ac7565b949350505050565b7f4f6e6c7920686f73742063616e20636c6f73652073657373696f6e0000000000600082015250565b6000612970601b83611cce565b915061297b8261293a565b602082019050919050565b6000602082019050818103600083015261299f81612963565b9050919050565b7f53657373696f6e20697320616c726561647920636c6f73656400000000000000600082015250565b60006129dc601983611cce565b91506129e7826129a6565b602082019050919050565b60006020820190508181036000830152612a0b816129cf565b905091905056fea26469706673582212203c9b9a4d289a7b35a887a5693e698bf1d49edd2bbb36d6186e9b9a6bcf3f7ec664736f6c63430008130033",
  "linkReferences": {},
  "deployedLinkReferences": {}
}