{
  "_format": "hh-sol-artifact-1",
  "contractName": "Voting",
  "sourceName": "contracts/Voting.sol",
  "abi": [
    {
      "inputs": [],
      "stateMutability": "nonpayable",
      "type": "constructor"
    },
    {
      "anonymous": false,
      "inputs": [
        {
          "indexed": false,
          "internalType": "uint256",
          "name": "candidateId",
          "type": "uint256"
        },
        {
          "indexed": false,
          "internalType": "string",
          "name": "name",
          "type": "string"
        }
      ],
      "name": "CandidateAdded",
      "type": "event"
    },
    {
      "anonymous": false,
      "inputs": [
        {
          "indexed": false,
          "internalType": "address",
          "name": "voter",
          "type": "address"
        },
        {
          "indexed": false,
          "internalType": "uint256",
          "name": "candidateId",
          "type": "uint256"
        }
      ],
      "name": "Voted",
      "type": "event"
    },
    {
      "anonymous": false,
      "inputs": [
        {
          "indexed": false,
          "internalType": "address",
          "name": "voter",
          "type": "address"
        }
      ],
      "name": "VoterRegistered",
      "type": "event"
    },
    {
      "anonymous": false,
      "inputs": [],
      "name": "VotingClosed",
      "type": "event"
    },
    {
      "inputs": [
        {
          "internalType": "string",
          "name": "_name",
          "type": "string"
        }
      ],
      "name": "addCandidate",
      "outputs": [],
      "stateMutability": "nonpayable",
      "type": "function"
    },
    {
      "inputs": [],
      "name": "admin",
      "outputs": [
        {
          "internalType": "address",
          "name": "",
          "type": "address"
        }
      ],
      "stateMutability": "view",
      "type": "function"
    },
    {
      "inputs": [
        {
          "internalType": "uint256",
          "name": "",
          "type": "uint256"
        }
      ],
      "name": "candidates",
      "outputs": [
        {
          "internalType": "uint256",
          "name": "id",
          "type": "uint256"
        },
        {
          "internalType": "string",
          "name": "name",
          "type": "string"
        },
        {
          "internalType": "uint256",
          "name": "voteCount",
          "type": "uint256"
        }
      ],
      "stateMutability": "view",
      "type": "function"
    },
    {
      "inputs": [],
      "name": "candidatesCount",
      "outputs": [
        {
          "internalType": "uint256",
          "name": "",
          "type": "uint256"
        }
      ],
      "stateMutability": "view",
      "type": "function"
    },
    {
      "inputs": [],
      "name": "closeVoting",
      "outputs": [],
      "stateMutability": "nonpayable",
      "type": "function"
    },
    {
      "inputs": [],
      "name": "getCandidates",
      "outputs": [
        {
          "components": [
            {
              "internalType": "uint256",
              "name": "id",
              "type": "uint256"
            },
            {
              "internalType": "string",
              "name": "name",
              "type": "string"
            },
            {
              "internalType": "uint256",
              "name": "voteCount",
              "type": "uint256"
            }
          ],
          "internalType": "struct Voting.Candidate[]",
          "name": "",
          "type": "tuple[]"
        }
      ],
      "stateMutability": "view",
      "type": "function"
    },
    {
      "inputs": [
        {
          "internalType": "address",
          "name": "",
          "type": "address"
        }
      ],
      "name": "hasVoted",
      "outputs": [
        {
          "internalType": "bool",
          "name": "",
          "type": "bool"
        }
      ],
      "stateMutability": "view",
      "type": "function"
    },
    {
      "inputs": [
        {
          "internalType": "address",
          "name": "_voter",
          "type": "address"
        }
      ],
      "name": "registerVoter",
      "outputs": [],
      "stateMutability": "nonpayable",
      "type": "function"
    },
    {
      "inputs": [
        {
          "internalType": "uint256",
          "name": "_candidateId",
          "type": "uint256"
        }
      ],
      "name": "vote",
      "outputs": [],
      "stateMutability": "nonpayable",
      "type": "function"
    },
    {
      "inputs": [
        {
          "internalType": "address",
          "name": "",
          "type": "address"
        }
      ],
      "name": "voters",
      "outputs": [
        {
          "internalType": "bool",
          "name": "",
          "type": "bool"
        }
      ],
      "stateMutability": "view",
      "type": "function"
    },
    {
      "inputs": [],
      "name": "votingClosed",
      "outputs": [
        {
          "internalType": "bool",
          "name": "",
          "type": "bool"
        }
      ],
      "stateMutability": "view",
      "type": "function"
    }
  ],
  "bytecode": "0x608060405234801561001057600080fd5b50336000806101000a81548173ffffffffffffffffffffffffffffffffffffffff021916908373ffffffffffffffffffffffffffffffffffffffff16021790555061163f806100606000396000f3fe608060405234801561001057600080fd5b50600436106100a95760003560e01c80633477ee2e116100715780633477ee2e1461015457806338db6dd314610186578063462e91ec146101a2578063a3ec138d146101be578063c631b292146101ee578063f851a440146101f8576100a9565b80630121b93f146100ae57806306a49fce146100ca57806309eef43e146100e85780632479ecb8146101185780632d35a8a214610136575b600080fd5b6100c860048036038101906100c39190610daf565b610216565b005b6100d2610490565b6040516100df9190611075565b60405180910390f35b61010260048036038101906100fd9190610d45565b610651565b60405161010f9190611097565b60405180910390f35b610120610671565b60405161012d9190611097565b60405180910390f35b61013e610684565b60405161014b9190611172565b60405180910390f35b61016e60048036038101906101699190610daf565b61068a565b60405161017d939291906111bd565b60405180910390f35b6101a0600480360381019061019b9190610d45565b61073c565b005b6101bc60048036038101906101b79190610d6e565b610939565b005b6101d860048036038101906101d39190610d45565b610ad4565b6040516101e59190611097565b60405180910390f35b6101f6610af4565b005b610200610bcb565b60405161020d9190611031565b60405180910390f35b600560009054906101000a900460ff1615610266576040517f08c379a000000000000000000000000000000000000000000000000000000000815260040161025d90611132565b60405180910390fd5b600260003373ffffffffffffffffffffffffffffffffffffffff1673ffffffffffffffffffffffffffffffffffffffff16815260200190815260200160002060009054906101000a900460ff166102f2576040517f08c379a00000000000000000000000000000000000000000000000000000000081526004016102e9906110b2565b60405180910390fd5b600360003373ffffffffffffffffffffffffffffffffffffffff1673ffffffffffffffffffffffffffffffffffffffff16815260200190815260200160002060009054906101000a900460ff161561037f576040517f08c379a000000000000000000000000000000000000000000000000000000000815260040161037690611152565b60405180910390fd5b60008111801561039157506004548111155b6103d0576040517f08c379a00000000000000000000000000000000000000000000000000000000081526004016103c7906110d2565b60405180910390fd5b6001600360003373ffffffffffffffffffffffffffffffffffffffff1673ffffffffffffffffffffffffffffffffffffffff16815260200190815260200160002060006101000a81548160ff02191690831515021790555060016000828152602001908152602001600020600201600081548092919061044f906113d8565b91905055507f4d99b957a2bc29a30ebd96a7be8e68fe50a3c701db28a91436490b7d53870ca4338260405161048592919061104c565b60405180910390a150565b6060600060045467ffffffffffffffff8111156104d6577f4e487b7100000000000000000000000000000000000000000000000000000000600052604160045260246000fd5b60405190808252806020026020018201604052801561050f57816020015b6104fc610bef565b8152602001906001900390816104f45790505b5090506000600190505b600454811161064957600160008281526020019081526020016000206040518060600160405290816000820154815260200160018201805461055a90611375565b80601f016020809104026020016040519081016040528092919081815260200182805461058690611375565b80156105d35780601f106105a8576101008083540402835291602001916105d3565b820191906000526020600020905b8154815290600101906020018083116105b657829003601f168201915b50505050508152602001600282015481525050826001836105f491906112b7565b8151811061062b577f4e487b7100000000000000000000000000000000000000000000000000000000600052603260045260246000fd5b60200260200101819052508080610641906113d8565b915050610519565b508091505090565b60036020528060005260406000206000915054906101000a900460ff1681565b600560009054906101000a900460ff1681565b60045481565b60016020528060005260406000206000915090508060000154908060010180546106b390611375565b80601f01602080910402602001604051908101604052809291908181526020018280546106df90611375565b801561072c5780601f106107015761010080835404028352916020019161072c565b820191906000526020600020905b81548152906001019060200180831161070f57829003601f168201915b5050505050908060020154905083565b60008054906101000a900473ffffffffffffffffffffffffffffffffffffffff1673ffffffffffffffffffffffffffffffffffffffff163373ffffffffffffffffffffffffffffffffffffffff16146107ca576040517f08c379a00000000000000000000000000000000000000000000000000000000081526004016107c190611112565b60405180910390fd5b600560009054906101000a900460ff161561081a576040517f08c379a000000000000000000000000000000000000000000000000000000000815260040161081190611132565b60405180910390fd5b600260008273ffffffffffffffffffffffffffffffffffffffff1673ffffffffffffffffffffffffffffffffffffffff16815260200190815260200160002060009054906101000a900460ff16156108a7576040517f08c379a000000000000000000000000000000000000000000000000000000000815260040161089e906110f2565b60405180910390fd5b6001600260008373ffffffffffffffffffffffffffffffffffffffff1673ffffffffffffffffffffffffffffffffffffffff16815260200190815260200160002060006101000a81548160ff0219169083151502179055507fb6be2187d059cc2a55fe29e0e503b566e1e0f8c8780096e185429350acffd3dd8160405161092e9190611031565b60405180910390a150565b60008054906101000a900473ffffffffffffffffffffffffffffffffffffffff1673ffffffffffffffffffffffffffffffffffffffff163373ffffffffffffffffffffffffffffffffffffffff16146109c7576040517f08c379a00000000000000000000000000000000000000000000000000000000081526004016109be90611112565b60405180910390fd5b600560009054906101000a900460ff1615610a17576040517f08c379a0000000000000000000000000000000000000000000000000000000008152600401610a0e90611132565b60405180910390fd5b60046000815480929190610a2a906113d8565b9190505550604051806060016040528060045481526020018281526020016000815250600160006004548152602001908152602001600020600082015181600001556020820151816001019080519060200190610a88929190610c10565b50604082015181600201559050507fe83b2a43e7e82d975c8a0a6d2f045153c869e111136a34d1889ab7b598e396a360045482604051610ac992919061118d565b60405180910390a150565b60026020528060005260406000206000915054906101000a900460ff1681565b60008054906101000a900473ffffffffffffffffffffffffffffffffffffffff1673ffffffffffffffffffffffffffffffffffffffff163373ffffffffffffffffffffffffffffffffffffffff1614610b82576040517f08c379a0000000000000000000000000000000000000000000000000000000008152600401610b7990611112565b60405180910390fd5b6001600560006101000a81548160ff0219169083151502179055507f66b6cb4a09abc3bf1cacc3c67420258856ffdad0deba9078cbd1658957b5021860405160405180910390a1565b60008054906101000a900473ffffffffffffffffffffffffffffffffffffffff1681565b60405180606001604052806000815260200160608152602001600081525090565b828054610c1c90611375565b90600052602060002090601f016020900481019282610c3e5760008555610c85565b82601f10610c5757805160ff1916838001178555610c85565b82800160010185558215610c85579182015b82811115610c84578251825591602001919060010190610c69565b5b509050610c929190610c96565b5090565b5b80821115610caf576000816000905550600101610c97565b5090565b6000610cc6610cc184611220565b6111fb565b905082815260208101848484011115610cde57600080fd5b610ce9848285611333565b509392505050565b600081359050610d00816115db565b92915050565b600082601f830112610d1757600080fd5b8135610d27848260208601610cb3565b91505092915050565b600081359050610d3f816115f2565b92915050565b600060208284031215610d5757600080fd5b6000610d6584828501610cf1565b91505092915050565b600060208284031215610d8057600080fd5b600082013567ffffffffffffffff811115610d9a57600080fd5b610da684828501610d06565b91505092915050565b600060208284031215610dc157600080fd5b6000610dcf84828501610d30565b91505092915050565b6000610de48383610fc3565b905092915050565b610df5816112eb565b82525050565b6000610e0682611261565b610e108185611284565b935083602082028501610e2285611251565b8060005b85811015610e5e5784840389528151610e3f8582610dd8565b9450610e4a83611277565b925060208a01995050600181019050610e26565b50829750879550505050505092915050565b610e79816112fd565b82525050565b6000610e8a8261126c565b610e948185611295565b9350610ea4818560208601611342565b610ead816114ae565b840191505092915050565b6000610ec38261126c565b610ecd81856112a6565b9350610edd818560208601611342565b610ee6816114ae565b840191505092915050565b6000610efe601e836112a6565b9150610f09826114bf565b602082019050919050565b6000610f216011836112a6565b9150610f2c826114e8565b602082019050919050565b6000610f446018836112a6565b9150610f4f82611511565b602082019050919050565b6000610f676022836112a6565b9150610f728261153a565b604082019050919050565b6000610f8a6010836112a6565b9150610f9582611589565b602082019050919050565b6000610fad6016836112a6565b9150610fb8826115b2565b602082019050919050565b6000606083016000830151610fdb6000860182611013565b5060208301518482036020860152610ff38282610e7f565b91505060408301516110086040860182611013565b508091505092915050565b61101c81611329565b82525050565b61102b81611329565b82525050565b60006020820190506110466000830184610dec565b92915050565b60006040820190506110616000830185610dec565b61106e6020830184611022565b9392505050565b6000602082019050818103600083015261108f8184610dfb565b905092915050565b60006020820190506110ac6000830184610e70565b92915050565b600060208201905081810360008301526110cb81610ef1565b9050919050565b600060208201905081810360008301526110eb81610f14565b9050919050565b6000602082019050818103600083015261110b81610f37565b9050919050565b6000602082019050818103600083015261112b81610f5a565b9050919050565b6000602082019050818103600083015261114b81610f7d565b9050919050565b6000602082019050818103600083015261116b81610fa0565b9050919050565b60006020820190506111876000830184611022565b92915050565b60006040820190506111a26000830185611022565b81810360208301526111b48184610eb8565b90509392505050565b60006060820190506111d26000830186611022565b81810360208301526111e48185610eb8565b90506111f36040830184611022565b949350505050565b6000611205611216565b905061121182826113a7565b919050565b6000604051905090565b600067ffffffffffffffff82111561123b5761123a61147f565b5b611244826114ae565b9050602081019050919050565b6000819050602082019050919050565b600081519050919050565b600081519050919050565b6000602082019050919050565b600082825260208201905092915050565b600082825260208201905092915050565b600082825260208201905092915050565b60006112c282611329565b91506112cd83611329565b9250828210156112e0576112df611421565b5b828203905092915050565b60006112f682611309565b9050919050565b60008115159050919050565b600073ffffffffffffffffffffffffffffffffffffffff82169050919050565b6000819050919050565b82818337600083830152505050565b60005b83811015611360578082015181840152602081019050611345565b8381111561136f576000848401525b50505050565b6000600282049050600182168061138d57607f821691505b602082108114156113a1576113a0611450565b5b50919050565b6113b0826114ae565b810181811067ffffffffffffffff821117156113cf576113ce61147f565b5b80604052505050565b60006113e382611329565b91507fffffffffffffffffffffffffffffffffffffffffffffffffffffffffffffffff82141561141657611415611421565b5b600182019050919050565b7f4e487b7100000000000000000000000000000000000000000000000000000000600052601160045260246000fd5b7f4e487b7100000000000000000000000000000000000000000000000000000000600052602260045260246000fd5b7f4e487b7100000000000000000000000000000000000000000000000000000000600052604160045260246000fd5b6000601f19601f8301169050919050565b7f596f7520617265206e6f74207265676973746572656420746f20766f74650000600082015250565b7f496e76616c69642063616e646964617465000000000000000000000000000000600082015250565b7f566f74657220616c726561647920726567697374657265640000000000000000600082015250565b7f4f6e6c792061646d696e2063616e20706572666f726d2074686973206163746960008201527f6f6e000000000000000000000000000000000000000000000000000000000000602082015250565b7f566f74696e6720697320636c6f73656400000000000000000000000000000000600082015250565b7f596f75206861766520616c726561647920766f74656400000000000000000000600082015250565b6115e4816112eb565b81146115ef57600080fd5b50565b6115fb81611329565b811461160657600080fd5b5056fea2646970667358221220fbf9feb548df7806ffa8fe8c2ccd058c24d79471e1c0404471cb867634b493b664736f6c63430008040033",
  "linkReferences": {},
  "deployedLinkReferences": {}
}